{
  "contractName": "GameCenter",
  "abi": [
    {
      "inputs": [
        {
          "internalType": "contract PiyoCoin",
          "name": "_token",
          "type": "address"
        }
      ],
      "stateMutability": "nonpayable",
      "type": "constructor"
    },
    {
      "anonymous": false,
      "inputs": [
        {
          "indexed": true,
          "internalType": "address",
          "name": "user",
          "type": "address"
        }
      ],
      "name": "Change2coin",
      "type": "event"
    },
    {
      "anonymous": false,
      "inputs": [
        {
          "indexed": true,
          "internalType": "address",
          "name": "user",
          "type": "address"
        }
      ],
      "name": "Sagitarius_end",
      "type": "event"
    },
    {
      "anonymous": false,
      "inputs": [
        {
          "indexed": true,
          "internalType": "address",
          "name": "from",
          "type": "address"
        },
        {
          "indexed": true,
          "internalType": "address",
          "name": "to",
          "type": "address"
        }
      ],
      "name": "Sagitarius_hit",
      "type": "event"
    },
    {
      "anonymous": false,
      "inputs": [
        {
          "indexed": true,
          "internalType": "address",
          "name": "user",
          "type": "address"
        },
        {
          "indexed": false,
          "internalType": "uint256",
          "name": "direc",
          "type": "uint256"
        }
      ],
      "name": "Sagitarius_move",
      "type": "event"
    },
    {
      "anonymous": false,
      "inputs": [
        {
          "indexed": true,
          "internalType": "address",
          "name": "user",
          "type": "address"
        },
        {
          "indexed": false,
          "internalType": "uint256",
          "name": "balance",
          "type": "uint256"
        }
      ],
      "name": "Sagitarius_rtb",
      "type": "event"
    },
    {
      "anonymous": false,
      "inputs": [
        {
          "indexed": true,
          "internalType": "address",
          "name": "user",
          "type": "address"
        }
      ],
      "name": "Sagitarius_shot",
      "type": "event"
    },
    {
      "anonymous": false,
      "inputs": [
        {
          "indexed": true,
          "internalType": "address",
          "name": "user",
          "type": "address"
        },
        {
          "indexed": false,
          "internalType": "uint256",
          "name": "x",
          "type": "uint256"
        },
        {
          "indexed": false,
          "internalType": "uint256",
          "name": "y",
          "type": "uint256"
        }
      ],
      "name": "Sagitarius_start",
      "type": "event"
    },
    {
      "inputs": [],
      "name": "MAP_SIZE",
      "outputs": [
        {
          "internalType": "uint256",
          "name": "",
          "type": "uint256"
        }
      ],
      "stateMutability": "view",
      "type": "function",
      "constant": true
    },
    {
      "inputs": [
        {
          "internalType": "uint256",
          "name": "",
          "type": "uint256"
        }
      ],
      "name": "missiles",
      "outputs": [
        {
          "internalType": "address",
          "name": "owner",
          "type": "address"
        },
        {
          "internalType": "uint256",
          "name": "direction",
          "type": "uint256"
        },
        {
          "internalType": "uint256",
          "name": "x",
          "type": "uint256"
        },
        {
          "internalType": "uint256",
          "name": "y",
          "type": "uint256"
        },
        {
          "internalType": "bool",
          "name": "live",
          "type": "bool"
        }
      ],
      "stateMutability": "view",
      "type": "function",
      "constant": true
    },
    {
      "inputs": [
        {
          "internalType": "address",
          "name": "",
          "type": "address"
        }
      ],
      "name": "piyo_balance",
      "outputs": [
        {
          "internalType": "uint256",
          "name": "",
          "type": "uint256"
        }
      ],
      "stateMutability": "view",
      "type": "function",
      "constant": true
    },
    {
      "inputs": [
        {
          "internalType": "uint256",
          "name": "",
          "type": "uint256"
        }
      ],
      "name": "ships",
      "outputs": [
        {
          "internalType": "address",
          "name": "owner",
          "type": "address"
        },
        {
          "internalType": "uint256",
          "name": "direction",
          "type": "uint256"
        },
        {
          "internalType": "uint256",
          "name": "x",
          "type": "uint256"
        },
        {
          "internalType": "uint256",
          "name": "y",
          "type": "uint256"
        },
        {
          "internalType": "bool",
          "name": "live",
          "type": "bool"
        }
      ],
      "stateMutability": "view",
      "type": "function",
      "constant": true
    },
    {
      "inputs": [],
      "name": "getShipLength",
      "outputs": [
        {
          "internalType": "uint256",
          "name": "",
          "type": "uint256"
        }
      ],
      "stateMutability": "view",
      "type": "function",
      "constant": true
    },
    {
      "inputs": [],
      "name": "getMissleLenght",
      "outputs": [
        {
          "internalType": "uint256",
          "name": "",
          "type": "uint256"
        }
      ],
      "stateMutability": "view",
      "type": "function",
      "constant": true
    },
    {
      "inputs": [],
      "name": "change2coin",
      "outputs": [],
      "stateMutability": "payable",
      "type": "function",
      "payable": true
    },
    {
      "inputs": [],
      "name": "sagitarius_start",
      "outputs": [],
      "stateMutability": "nonpayable",
      "type": "function"
    },
    {
      "inputs": [
        {
          "internalType": "uint256",
          "name": "direc",
          "type": "uint256"
        }
      ],
      "name": "sagitarius_move",
      "outputs": [],
      "stateMutability": "nonpayable",
      "type": "function"
    },
    {
      "inputs": [],
      "name": "sagitarius_shot",
      "outputs": [],
      "stateMutability": "nonpayable",
      "type": "function"
    },
    {
      "inputs": [],
      "name": "sagitarius_rtb",
      "outputs": [],
      "stateMutability": "nonpayable",
      "type": "function"
    }
  ],
  "bytecode": "0x60806040523480156200001157600080fd5b506040516200311738038062003117833981810160405281019062000037919062000096565b80600360006101000a81548173ffffffffffffffffffffffffffffffffffffffff021916908373ffffffffffffffffffffffffffffffffffffffff1602179055505062000124565b60008151905062000090816200010a565b92915050565b600060208284031215620000a957600080fd5b6000620000b9848285016200007f565b91505092915050565b6000620000cf82620000ea565b9050919050565b6000620000e382620000c2565b9050919050565b600073ffffffffffffffffffffffffffffffffffffffff82169050919050565b6200011581620000d6565b81146200012157600080fd5b50565b612fe380620001346000396000f3fe60806040526004361061009c5760003560e01c80638e287abd116100645780638e287abd14610157578063ac172ac51461016e578063c68de59814610185578063cc507841146101b0578063e763cf82146101ed578063ea8c80d4146102185761009c565b80633cfbc3f7146100a157806347879d8a146100ab5780634b09b084146100d65780634d4e8dfa146100ff5780635285d2d314610140575b600080fd5b6100a9610259565b005b3480156100b757600080fd5b506100c0610380565b6040516100cd9190612c34565b60405180910390f35b3480156100e257600080fd5b506100fd60048036038101906100f891906129f3565b61038c565b005b34801561010b57600080fd5b50610126600480360381019061012191906129f3565b610a1c565b604051610137959493929190612ba1565b60405180910390f35b34801561014c57600080fd5b50610155610a8f565b005b34801561016357600080fd5b5061016c610fe2565b005b34801561017a57600080fd5b5061018361179d565b005b34801561019157600080fd5b5061019a611c64565b6040516101a79190612c34565b60405180910390f35b3480156101bc57600080fd5b506101d760048036038101906101d291906129a1565b611c71565b6040516101e49190612c34565b60405180910390f35b3480156101f957600080fd5b50610202611c89565b60405161020f9190612c34565b60405180910390f35b34801561022457600080fd5b5061023f600480360381019061023a91906129f3565b611c8e565b604051610250959493929190612ba1565b60405180910390f35b670de0b6b3a764000034146102a3576040517f08c379a000000000000000000000000000000000000000000000000000000000815260040161029a90612bf4565b60405180910390fd5b600360009054906101000a900473ffffffffffffffffffffffffffffffffffffffff1673ffffffffffffffffffffffffffffffffffffffff166340c10f19336801a055690d9db800006040518363ffffffff1660e01b8152600401610309929190612b4f565b600060405180830381600087803b15801561032357600080fd5b505af1158015610337573d6000803e3d6000fd5b505050503373ffffffffffffffffffffffffffffffffffffffff167f43a528c83c636c9c67db3969367ae56b845cc7828e931210041d94a9b430082960405160405180910390a2565b60008080549050905090565b60005b6000805490508110156109b257600081815481106103d6577f4e487b7100000000000000000000000000000000000000000000000000000000600052603260045260246000fd5b906000526020600020906005020160040160009054906101000a900460ff16801561049757503373ffffffffffffffffffffffffffffffffffffffff166000828154811061044d577f4e487b7100000000000000000000000000000000000000000000000000000000600052603260045260246000fd5b906000526020600020906005020160000160009054906101000a900473ffffffffffffffffffffffffffffffffffffffff1673ffffffffffffffffffffffffffffffffffffffff16145b1561099f5760008082815481106104d7577f4e487b7100000000000000000000000000000000000000000000000000000000600052603260045260246000fd5b90600052602060002090600502016002015490506000808381548110610526577f4e487b7100000000000000000000000000000000000000000000000000000000600052603260045260246000fd5b90600052602060002090600502016003015490508360008481548110610575577f4e487b7100000000000000000000000000000000000000000000000000000000600052603260045260246000fd5b90600052602060002090600502016001018190555060088414156105a257808061059e90612dd9565b9150505b60068414156105ba5781806105b690612e03565b9250505b60028414156105d25780806105ce90612e03565b9150505b60048414156105ea5781806105e690612dd9565b9250505b600260326105f89190612d39565b821061061b5760016002603261060e9190612d39565b6106189190612d39565b91505b600260326106299190612d39565b811061064c5760016002603261063f9190612d39565b6106499190612d39565b90505b600080600090505b6000805490508110156108f0576000818154811061069b577f4e487b7100000000000000000000000000000000000000000000000000000000600052603260045260246000fd5b906000526020600020906005020160040160009054906101000a900460ff16801561075d57503373ffffffffffffffffffffffffffffffffffffffff1660008281548110610712577f4e487b7100000000000000000000000000000000000000000000000000000000600052603260045260246000fd5b906000526020600020906005020160000160009054906101000a900473ffffffffffffffffffffffffffffffffffffffff1673ffffffffffffffffffffffffffffffffffffffff1614155b156108dd576000610804600087815481106107a1577f4e487b7100000000000000000000000000000000000000000000000000000000600052603260045260246000fd5b906000526020600020906005020160020154600084815481106107ed577f4e487b7100000000000000000000000000000000000000000000000000000000600052603260045260246000fd5b906000526020600020906005020160020154611d01565b905060006108a860008881548110610845577f4e487b7100000000000000000000000000000000000000000000000000000000600052603260045260246000fd5b90600052602060002090600502016003015460008581548110610891577f4e487b7100000000000000000000000000000000000000000000000000000000600052603260045260246000fd5b906000526020600020906005020160030154611d01565b90506002806108b79190612cdf565b821080156108d057506002806108cd9190612cdf565b81105b156108da57600193505b50505b80806108e890612e03565b915050610654565b5080610997578260008581548110610931577f4e487b7100000000000000000000000000000000000000000000000000000000600052603260045260246000fd5b9060005260206000209060050201600201819055508160008581548110610981577f4e487b7100000000000000000000000000000000000000000000000000000000600052603260045260246000fd5b9060005260206000209060050201600301819055505b5050506109b2565b80806109aa90612e03565b91505061038f565b503373ffffffffffffffffffffffffffffffffffffffff167f27267ee7d785321e05815664fe58adb45d756eaaa8cf18a496b1ba7d23d4d19a826040516109f99190612c34565b60405180910390a2610a09611d3c565b610a11611d3c565b610a19611d3c565b50565b60008181548110610a2c57600080fd5b90600052602060002090600502016000915090508060000160009054906101000a900473ffffffffffffffffffffffffffffffffffffffff16908060010154908060020154908060030154908060040160009054906101000a900460ff16905085565b600360009054906101000a900473ffffffffffffffffffffffffffffffffffffffff1673ffffffffffffffffffffffffffffffffffffffff166323b872dd3330678ac7230489e800006040518463ffffffff1660e01b8152600401610af693929190612b18565b602060405180830381600087803b158015610b1057600080fd5b505af1158015610b24573d6000803e3d6000fd5b505050506040513d601f19601f82011682018060405250810190610b4891906129ca565b610b87576040517f08c379a0000000000000000000000000000000000000000000000000000000008152600401610b7e90612c14565b60405180910390fd5b60008060005b8280610b9890612e03565b935050610ba483612750565b8092508193505050610bb682826127ea565b610b8d576000805b600080549050811015610e2f5760008181548110610c05577f4e487b7100000000000000000000000000000000000000000000000000000000600052603260045260246000fd5b906000526020600020906005020160040160009054906101000a900460ff16158015610c2f575081155b15610e1c57600191503360008281548110610c73577f4e487b7100000000000000000000000000000000000000000000000000000000600052603260045260246000fd5b906000526020600020906005020160000160006101000a81548173ffffffffffffffffffffffffffffffffffffffff021916908373ffffffffffffffffffffffffffffffffffffffff160217905550600860008281548110610cfe577f4e487b7100000000000000000000000000000000000000000000000000000000600052603260045260246000fd5b9060005260206000209060050201600101819055508360008281548110610d4e577f4e487b7100000000000000000000000000000000000000000000000000000000600052603260045260246000fd5b9060005260206000209060050201600201819055508260008281548110610d9e577f4e487b7100000000000000000000000000000000000000000000000000000000600052603260045260246000fd5b906000526020600020906005020160030181905550600160008281548110610def577f4e487b7100000000000000000000000000000000000000000000000000000000600052603260045260246000fd5b906000526020600020906005020160040160006101000a81548160ff021916908315150217905550610e2f565b8080610e2790612e03565b915050610bbe565b5080610f2f5760006040518060a001604052803373ffffffffffffffffffffffffffffffffffffffff16815260200160088152602001858152602001848152602001600115158152509050600081908060018154018082558091505060019003906000526020600020906005020160009091909190915060008201518160000160006101000a81548173ffffffffffffffffffffffffffffffffffffffff021916908373ffffffffffffffffffffffffffffffffffffffff16021790555060208201518160010155604082015181600201556060820151816003015560808201518160040160006101000a81548160ff0219169083151502179055505050505b3373ffffffffffffffffffffffffffffffffffffffff167f8cd5e6a3fd3e858ab688fca383df74a376086a17ccf74b998a0b75e21e6bbf368484604051610f77929190612c4f565b60405180910390a2600a600260003373ffffffffffffffffffffffffffffffffffffffff1673ffffffffffffffffffffffffffffffffffffffff16815260200190815260200160002081905550610fcc611d3c565b610fd4611d3c565b610fdc611d3c565b50505050565b60005b60008054905081101561173f576000818154811061102c577f4e487b7100000000000000000000000000000000000000000000000000000000600052603260045260246000fd5b906000526020600020906005020160040160009054906101000a900460ff1680156110ed57503373ffffffffffffffffffffffffffffffffffffffff16600082815481106110a3577f4e487b7100000000000000000000000000000000000000000000000000000000600052603260045260246000fd5b906000526020600020906005020160000160009054906101000a900473ffffffffffffffffffffffffffffffffffffffff1673ffffffffffffffffffffffffffffffffffffffff16145b1561172c57600080828154811061112d577f4e487b7100000000000000000000000000000000000000000000000000000000600052603260045260246000fd5b9060005260206000209060050201600201549050600080838154811061117c577f4e487b7100000000000000000000000000000000000000000000000000000000600052603260045260246000fd5b90600052602060002090600502016003015490506008600084815481106111cc577f4e487b7100000000000000000000000000000000000000000000000000000000600052603260045260246000fd5b90600052602060002090600502016001015414156111f4576002816111f19190612d39565b90505b600660008481548110611230577f4e487b7100000000000000000000000000000000000000000000000000000000600052603260045260246000fd5b9060005260206000209060050201600101541415611258576002826112559190612c89565b91505b600260008481548110611294577f4e487b7100000000000000000000000000000000000000000000000000000000600052603260045260246000fd5b90600052602060002090600502016001015414156112bc576002816112b99190612c89565b90505b6004600084815481106112f8577f4e487b7100000000000000000000000000000000000000000000000000000000600052603260045260246000fd5b90600052602060002090600502016001015414156113205760028261131d9190612d39565b91505b6000805b6001805490508110156115de576001818154811061136b577f4e487b7100000000000000000000000000000000000000000000000000000000600052603260045260246000fd5b906000526020600020906005020160040160009054906101000a900460ff16158015611395575081155b156115cb576001915033600182815481106113d9577f4e487b7100000000000000000000000000000000000000000000000000000000600052603260045260246000fd5b906000526020600020906005020160000160006101000a81548173ffffffffffffffffffffffffffffffffffffffff021916908373ffffffffffffffffffffffffffffffffffffffff16021790555060008581548110611462577f4e487b7100000000000000000000000000000000000000000000000000000000600052603260045260246000fd5b906000526020600020906005020160010154600182815481106114ae577f4e487b7100000000000000000000000000000000000000000000000000000000600052603260045260246000fd5b90600052602060002090600502016001018190555083600182815481106114fe577f4e487b7100000000000000000000000000000000000000000000000000000000600052603260045260246000fd5b906000526020600020906005020160020181905550826001828154811061154e577f4e487b7100000000000000000000000000000000000000000000000000000000600052603260045260246000fd5b906000526020600020906005020160030181905550600180828154811061159e577f4e487b7100000000000000000000000000000000000000000000000000000000600052603260045260246000fd5b906000526020600020906005020160040160006101000a81548160ff0219169083151502179055506115de565b80806115d690612e03565b915050611324565b50806117285760006040518060a001604052803373ffffffffffffffffffffffffffffffffffffffff16815260200160008781548110611647577f4e487b7100000000000000000000000000000000000000000000000000000000600052603260045260246000fd5b9060005260206000209060050201600101548152602001858152602001848152602001600115158152509050600181908060018154018082558091505060019003906000526020600020906005020160009091909190915060008201518160000160006101000a81548173ffffffffffffffffffffffffffffffffffffffff021916908373ffffffffffffffffffffffffffffffffffffffff16021790555060208201518160010155604082015181600201556060820151816003015560808201518160040160006101000a81548160ff0219169083151502179055505050505b5050505b808061173790612e03565b915050610fe5565b503373ffffffffffffffffffffffffffffffffffffffff167f0bce5ccf4485f43ffa6305612daf8f6e6c50a025ce3d549e219e23429275b75560405160405180910390a261178b611d3c565b611793611d3c565b61179b611d3c565b565b60005b60018054905081101561192657600181815481106117e7577f4e487b7100000000000000000000000000000000000000000000000000000000600052603260045260246000fd5b906000526020600020906005020160040160009054906101000a900460ff161580156118a957503373ffffffffffffffffffffffffffffffffffffffff166001828154811061185f577f4e487b7100000000000000000000000000000000000000000000000000000000600052603260045260246000fd5b906000526020600020906005020160000160009054906101000a900473ffffffffffffffffffffffffffffffffffffffff1673ffffffffffffffffffffffffffffffffffffffff16145b15611913576000600182815481106118ea577f4e487b7100000000000000000000000000000000000000000000000000000000600052603260045260246000fd5b906000526020600020906005020160040160006101000a81548160ff0219169083151502179055505b808061191e90612e03565b9150506117a0565b5060005b600080549050811015611c495760008181548110611971577f4e487b7100000000000000000000000000000000000000000000000000000000600052603260045260246000fd5b906000526020600020906005020160040160009054906101000a900460ff168015611a3257503373ffffffffffffffffffffffffffffffffffffffff16600082815481106119e8577f4e487b7100000000000000000000000000000000000000000000000000000000600052603260045260246000fd5b906000526020600020906005020160000160009054906101000a900473ffffffffffffffffffffffffffffffffffffffff1673ffffffffffffffffffffffffffffffffffffffff16145b15611c36576000808281548110611a72577f4e487b7100000000000000000000000000000000000000000000000000000000600052603260045260246000fd5b906000526020600020906005020160040160006101000a81548160ff0219169083151502179055506000600260003373ffffffffffffffffffffffffffffffffffffffff1673ffffffffffffffffffffffffffffffffffffffff1681526020019081526020016000205490506000600260003373ffffffffffffffffffffffffffffffffffffffff1673ffffffffffffffffffffffffffffffffffffffff16815260200190815260200160002081905550600360009054906101000a900473ffffffffffffffffffffffffffffffffffffffff1673ffffffffffffffffffffffffffffffffffffffff1663a9059cbb33670de0b6b3a764000084611b769190612cdf565b6040518363ffffffff1660e01b8152600401611b93929190612b78565b602060405180830381600087803b158015611bad57600080fd5b505af1158015611bc1573d6000803e3d6000fd5b505050506040513d601f19601f82011682018060405250810190611be591906129ca565b503373ffffffffffffffffffffffffffffffffffffffff167fb876209d6f68f8b63aa54a78666b74a56fddc6ba56239492069cd908df895e3982604051611c2c9190612c34565b60405180910390a2505b8080611c4190612e03565b91505061192a565b50611c52611d3c565b611c5a611d3c565b611c62611d3c565b565b6000600180549050905090565b60026020528060005260406000206000915090505481565b603281565b60018181548110611c9e57600080fd5b90600052602060002090600502016000915090508060000160009054906101000a900473ffffffffffffffffffffffffffffffffffffffff16908060010154908060020154908060030154908060040160009054906101000a900460ff16905085565b60008082841115611d1b578284611d189190612d39565b90505b83831115611d32578383611d2f9190612d39565b90505b8091505092915050565b60005b60018054905081101561274d5760018181548110611d86577f4e487b7100000000000000000000000000000000000000000000000000000000600052603260045260246000fd5b906000526020600020906005020160040160009054906101000a900460ff161561273a57600060018281548110611de6577f4e487b7100000000000000000000000000000000000000000000000000000000600052603260045260246000fd5b9060005260206000209060050201600201549050600060018381548110611e36577f4e487b7100000000000000000000000000000000000000000000000000000000600052603260045260246000fd5b9060005260206000209060050201600301549050600860018481548110611e86577f4e487b7100000000000000000000000000000000000000000000000000000000600052603260045260246000fd5b9060005260206000209060050201600101541415611ead578080611ea990612dd9565b9150505b600660018481548110611ee9577f4e487b7100000000000000000000000000000000000000000000000000000000600052603260045260246000fd5b9060005260206000209060050201600101541415611f10578180611f0c90612e03565b9250505b600260018481548110611f4c577f4e487b7100000000000000000000000000000000000000000000000000000000600052603260045260246000fd5b9060005260206000209060050201600101541415611f73578080611f6f90612e03565b9150505b600460018481548110611faf577f4e487b7100000000000000000000000000000000000000000000000000000000600052603260045260246000fd5b9060005260206000209060050201600101541415611fd6578180611fd290612dd9565b9250505b8160018481548110612011577f4e487b7100000000000000000000000000000000000000000000000000000000600052603260045260246000fd5b9060005260206000209060050201600201819055508060018481548110612061577f4e487b7100000000000000000000000000000000000000000000000000000000600052603260045260246000fd5b90600052602060002090600502016003018190555060008214806120855750600081145b80612091575060328210155b8061209d575060328110155b1561210d576000600184815481106120de577f4e487b7100000000000000000000000000000000000000000000000000000000600052603260045260246000fd5b906000526020600020906005020160040160006101000a81548160ff021916908315150217905550505061274d565b60005b6000805490508110156127365760008181548110612157577f4e487b7100000000000000000000000000000000000000000000000000000000600052603260045260246000fd5b906000526020600020906005020160040160009054906101000a900460ff16156127235760006121d284600084815481106121bb577f4e487b7100000000000000000000000000000000000000000000000000000000600052603260045260246000fd5b906000526020600020906005020160020154611d01565b9050600061222b8460008581548110612214577f4e487b7100000000000000000000000000000000000000000000000000000000600052603260045260246000fd5b906000526020600020906005020160030154611d01565b905060028210801561223d5750600281105b156127205760006001878154811061227e577f4e487b7100000000000000000000000000000000000000000000000000000000600052603260045260246000fd5b906000526020600020906005020160040160006101000a81548160ff021916908315150217905550600260008085815481106122e3577f4e487b7100000000000000000000000000000000000000000000000000000000600052603260045260246000fd5b906000526020600020906005020160000160009054906101000a900473ffffffffffffffffffffffffffffffffffffffff1673ffffffffffffffffffffffffffffffffffffffff1673ffffffffffffffffffffffffffffffffffffffff168152602001908152602001600020600081548092919061236090612dd9565b919050555060026000600188815481106123a3577f4e487b7100000000000000000000000000000000000000000000000000000000600052603260045260246000fd5b906000526020600020906005020160000160009054906101000a900473ffffffffffffffffffffffffffffffffffffffff1673ffffffffffffffffffffffffffffffffffffffff1673ffffffffffffffffffffffffffffffffffffffff168152602001908152602001600020600081548092919061242090612e03565b91905055506000838154811061245f577f4e487b7100000000000000000000000000000000000000000000000000000000600052603260045260246000fd5b906000526020600020906005020160000160009054906101000a900473ffffffffffffffffffffffffffffffffffffffff1673ffffffffffffffffffffffffffffffffffffffff16600187815481106124e1577f4e487b7100000000000000000000000000000000000000000000000000000000600052603260045260246000fd5b906000526020600020906005020160000160009054906101000a900473ffffffffffffffffffffffffffffffffffffffff1673ffffffffffffffffffffffffffffffffffffffff167f70e0bf0d5f1e52cbf09e926d733875cc13ad631d5ef1ab113b6cc508862c68b460405160405180910390a3600060026000808681548110612594577f4e487b7100000000000000000000000000000000000000000000000000000000600052603260045260246000fd5b906000526020600020906005020160000160009054906101000a900473ffffffffffffffffffffffffffffffffffffffff1673ffffffffffffffffffffffffffffffffffffffff1673ffffffffffffffffffffffffffffffffffffffff168152602001908152602001600020541415612719576000808481548110612642577f4e487b7100000000000000000000000000000000000000000000000000000000600052603260045260246000fd5b906000526020600020906005020160040160006101000a81548160ff021916908315150217905550600083815481106126a4577f4e487b7100000000000000000000000000000000000000000000000000000000600052603260045260246000fd5b906000526020600020906005020160000160009054906101000a900473ffffffffffffffffffffffffffffffffffffffff1673ffffffffffffffffffffffffffffffffffffffff167fb462b6a6a244f4f532921ea7b0e588a64b44ca4bd845827e8e82253a2e7a42ff60405160405180910390a25b5050612736565b50505b808061272e90612e03565b915050612110565b5050505b808061274590612e03565b915050611d3f565b50565b6000806000603242338660405160200161276c93929190612adb565b6040516020818303038152906040528051906020012060001c61278f9190612e7a565b9050838061279c90612e03565b945050600060324233876040516020016127b893929190612adb565b6040516020818303038152906040528051906020012060001c6127db9190612e7a565b90508181935093505050915091565b6000806000905060005b600080549050811015612957576000818154811061283b577f4e487b7100000000000000000000000000000000000000000000000000000000600052603260045260246000fd5b906000526020600020906005020160040160009054906101000a900460ff16156129445760006128b6866000848154811061289f577f4e487b7100000000000000000000000000000000000000000000000000000000600052603260045260246000fd5b906000526020600020906005020160020154611d01565b9050600061290f86600085815481106128f8577f4e487b7100000000000000000000000000000000000000000000000000000000600052603260045260246000fd5b906000526020600020906005020160030154611d01565b905060028061291e9190612cdf565b8210801561293757506002806129349190612c89565b81105b1561294157600193505b50505b808061294f90612e03565b9150506127f4565b508091505092915050565b60008135905061297181612f68565b92915050565b60008151905061298681612f7f565b92915050565b60008135905061299b81612f96565b92915050565b6000602082840312156129b357600080fd5b60006129c184828501612962565b91505092915050565b6000602082840312156129dc57600080fd5b60006129ea84828501612977565b91505092915050565b600060208284031215612a0557600080fd5b6000612a138482850161298c565b91505092915050565b612a2581612d6d565b82525050565b612a3c612a3782612d6d565b612e4c565b82525050565b612a4b81612d7f565b82525050565b612a5a81612db5565b82525050565b612a6981612dc7565b82525050565b6000612a7c601483612c78565b9150612a8782612f16565b602082019050919050565b6000612a9f600c83612c78565b9150612aaa82612f3f565b602082019050919050565b612abe81612dab565b82525050565b612ad5612ad082612dab565b612e70565b82525050565b6000612ae78286612ac4565b602082019150612af78285612a2b565b601482019150612b078284612ac4565b602082019150819050949350505050565b6000606082019050612b2d6000830186612a1c565b612b3a6020830185612a1c565b612b476040830184612a51565b949350505050565b6000604082019050612b646000830185612a1c565b612b716020830184612a60565b9392505050565b6000604082019050612b8d6000830185612a1c565b612b9a6020830184612ab5565b9392505050565b600060a082019050612bb66000830188612a1c565b612bc36020830187612ab5565b612bd06040830186612ab5565b612bdd6060830185612ab5565b612bea6080830184612a42565b9695505050505050565b60006020820190508181036000830152612c0d81612a6f565b9050919050565b60006020820190508181036000830152612c2d81612a92565b9050919050565b6000602082019050612c496000830184612ab5565b92915050565b6000604082019050612c646000830185612ab5565b612c716020830184612ab5565b9392505050565b600082825260208201905092915050565b6000612c9482612dab565b9150612c9f83612dab565b9250827fffffffffffffffffffffffffffffffffffffffffffffffffffffffffffffffff03821115612cd457612cd3612eab565b5b828201905092915050565b6000612cea82612dab565b9150612cf583612dab565b9250817fffffffffffffffffffffffffffffffffffffffffffffffffffffffffffffffff0483118215151615612d2e57612d2d612eab565b5b828202905092915050565b6000612d4482612dab565b9150612d4f83612dab565b925082821015612d6257612d61612eab565b5b828203905092915050565b6000612d7882612d8b565b9050919050565b60008115159050919050565b600073ffffffffffffffffffffffffffffffffffffffff82169050919050565b6000819050919050565b6000612dc082612dab565b9050919050565b6000612dd282612dab565b9050919050565b6000612de482612dab565b91506000821415612df857612df7612eab565b5b600182039050919050565b6000612e0e82612dab565b91507fffffffffffffffffffffffffffffffffffffffffffffffffffffffffffffffff821415612e4157612e40612eab565b5b600182019050919050565b6000612e5782612e5e565b9050919050565b6000612e6982612f09565b9050919050565b6000819050919050565b6000612e8582612dab565b9150612e9083612dab565b925082612ea057612e9f612eda565b5b828206905092915050565b7f4e487b7100000000000000000000000000000000000000000000000000000000600052601160045260246000fd5b7f4e487b7100000000000000000000000000000000000000000000000000000000600052601260045260246000fd5b60008160601b9050919050565b7f576520616363657074206f6e6c79203120455448000000000000000000000000600082015250565b7f72657175697265206661696c0000000000000000000000000000000000000000600082015250565b612f7181612d6d565b8114612f7c57600080fd5b50565b612f8881612d7f565b8114612f9357600080fd5b50565b612f9f81612dab565b8114612faa57600080fd5b5056fea2646970667358221220f8f3d1bb3ffd90888dbaef7744efd3211e4cef5616d4720e9888322e04d083cb64736f6c63430008010033",
  "immutableReferences": {},
  "source": "// SPDX-License-Identifier: MIT\r\npragma solidity ^0.8.0;\r\n\r\nimport \"./PiyoPiyoCoin.sol\";\r\n\r\ncontract GameCenter {\r\n\r\n    uint constant public  MAP_SIZE = 50;\r\n    uint constant private SHIP_WIDTH = 2;\r\n\r\n    struct Missile {\r\n        address owner;\r\n        uint direction;     // 4:left  6:right   8:up 2:down\r\n        uint x;             // Top Left is zero point\r\n        uint y;\r\n        bool live;          // flag  \r\n    }\r\n\r\n    struct Ship {\r\n        address owner;\r\n        uint direction;\r\n        uint x;\r\n        uint y;\r\n        bool live;          // flag  \r\n    }\r\n\r\n    event Change2coin(address indexed user);\r\n    event Sagitarius_start(address indexed user, uint x, uint y);\r\n    event Sagitarius_move(address indexed user, uint direc);\r\n    event Sagitarius_shot(address indexed user);\r\n    event Sagitarius_rtb(address indexed user, uint balance);\r\n    event Sagitarius_hit(address indexed from,address indexed to);\r\n    event Sagitarius_end(address indexed user);\r\n\r\n\r\n\r\n    Ship[] public ships;\r\n    Missile[] public missiles;\r\n    mapping (address => uint256) public piyo_balance;\r\n\r\n    PiyoCoin private token;\r\n    \r\n    constructor(PiyoCoin _token)  {\r\n        token = _token;\r\n    }\r\n    \r\n    function getShipLength() public view  returns (uint) {\r\n        return ships.length;\r\n    }\r\n\r\n    function getMissleLenght() public view returns (uint) {\r\n        return missiles.length;\r\n    }\r\n    \r\n    function change2coin() payable public {\r\n        require(msg.value==1e18, 'We accept only 1 ETH');\r\n        token.mint(msg.sender, 30*1e18);\r\n        \r\n        emit Change2coin(msg.sender);\r\n    }\r\n    \r\n\r\n    // The day of Sagitarius III\r\n    function sagitarius_start() public {\r\n        require(token.transferFrom(msg.sender, address(this), 10*1e18), \"require fail\"); \r\n\r\n        uint seed;\r\n        uint x;\r\n        uint y;\r\n        \r\n        do {\r\n            seed++;\r\n            (x , y) = getRandomPosision(seed);\r\n        } while( isExist(x,y));\r\n\r\n        bool till=false;\r\n        \r\n        for( uint i=0; i < ships.length; i++) {\r\n            if (!ships[i].live  && !till) {\r\n                till=true;\r\n                ships[i].owner = msg.sender;\r\n                ships[i].direction =8;\r\n                ships[i].x = x;\r\n                ships[i].y = y;\r\n                ships[i].live = true;\r\n                break;\r\n            }\r\n        }\r\n        if (!till) {\r\n            Ship memory ship = Ship( msg.sender, 8, x, y, true);\r\n            ships.push(ship);\r\n        }        \r\n\r\n        emit Sagitarius_start(msg.sender,x,y);\r\n\r\n        piyo_balance[msg.sender] = 10;\r\n        moveMissiles();\r\n        moveMissiles();\r\n        moveMissiles();\r\n    }\r\n\r\n    function sagitarius_move(uint direc) public {\r\n        for( uint i=0; i < ships.length; i++) {\r\n            if (ships[i].live && ships[i].owner == msg.sender) {\r\n                uint nx=ships[i].x;\r\n                uint ny=ships[i].y;\r\n\r\n                ships[i].direction = direc;\r\n                \r\n                if (direc == 8) {ny--;}\r\n                if (direc == 6) {nx++;}\r\n                if (direc == 2) {ny++;}\r\n                if (direc == 4) {nx--;}\r\n\r\n                if (nx >= MAP_SIZE - SHIP_WIDTH ) { nx =  MAP_SIZE - SHIP_WIDTH -1;}\r\n                if (ny >= MAP_SIZE - SHIP_WIDTH ) { ny =  MAP_SIZE - SHIP_WIDTH -1;}\r\n                \r\n                bool exist;\r\n                for( uint j=0; j < ships.length; j++) {\r\n\r\n                    if (ships[j].live && ships[j].owner != msg.sender) {\r\n                        uint xw = absDiff( ships[i].x, ships[j].x);\r\n                        uint yw = absDiff( ships[i].y, ships[j].y);\r\n\r\n                        if ( xw < SHIP_WIDTH*2 && yw < SHIP_WIDTH*2) {\r\n                            exist = true;\r\n                        }\r\n                    }\r\n                }\r\n\r\n                if (!exist) {\r\n                    ships[i].x = nx;\r\n                    ships[i].y = ny;\r\n                }\r\n                break;\r\n            }\r\n        }\r\n\r\n        emit Sagitarius_move(msg.sender,direc);\r\n\r\n        moveMissiles();\r\n        moveMissiles();\r\n        moveMissiles();\r\n    }\r\n\r\n    function sagitarius_shot() public {\r\n        for( uint i=0; i < ships.length; i++) {\r\n            if (ships[i].live && ships[i].owner == msg.sender) {\r\n                uint x = ships[i].x;\r\n                uint y = ships[i].y;\r\n                \r\n                if ( ships[i].direction == 8) { y = y - SHIP_WIDTH ;}\r\n                if ( ships[i].direction == 6) { x = x + SHIP_WIDTH ;}\r\n                if ( ships[i].direction == 2) { y = y + SHIP_WIDTH ;}\r\n                if ( ships[i].direction == 4) { x = x - SHIP_WIDTH ;}\r\n\r\n                bool till=false;\r\n                \r\n                for( uint j=0; j < missiles.length; j++) {\r\n                    if (!missiles[j].live && !till) {\r\n                        till=true;\r\n                        missiles[j].owner = msg.sender;\r\n                        missiles[j].direction =ships[i].direction;\r\n                        missiles[j].x = x;\r\n                        missiles[j].y = y;\r\n                        missiles[j].live = true;\r\n                        break;\r\n                    }\r\n                }\r\n                if (!till) {\r\n                    Missile memory missile = Missile( msg.sender, ships[i].direction, x, y, true);\r\n                    missiles.push(missile);\r\n                }        \r\n            }\r\n        }\r\n        emit Sagitarius_shot(msg.sender);\r\n\r\n        moveMissiles();\r\n        moveMissiles();\r\n        moveMissiles();\r\n    }\r\n\r\n    function sagitarius_rtb() public {\r\n        for( uint j=0; j < missiles.length; j++) {\r\n            if (!missiles[j].live && missiles[j].owner == msg.sender) {\r\n                missiles[j].live = false;\r\n            }\r\n        }\r\n\r\n        for( uint i=0; i < ships.length; i++) {\r\n            if (ships[i].live && ships[i].owner == msg.sender) {\r\n                ships[i].live = false;\r\n                uint256 z = piyo_balance[msg.sender] ;\r\n                piyo_balance[msg.sender] = 0;\r\n                token.transfer(msg.sender, z * 1e18 );\r\n                \r\n                emit Sagitarius_rtb(msg.sender,z);\r\n            }\r\n        }\r\n\r\n        moveMissiles();\r\n        moveMissiles();\r\n        moveMissiles();\r\n\r\n\r\n   }\r\n\r\n\r\n    function moveMissiles() private {\r\n        for( uint i=0; i < missiles.length; i++) {\r\n            if (missiles[i].live) {\r\n                uint nx = missiles[i].x;\r\n                uint ny = missiles[i].y;\r\n                \r\n                if ( missiles[i].direction == 8) { ny--; }\r\n                if ( missiles[i].direction == 6) { nx++; }\r\n                if ( missiles[i].direction == 2) { ny++; }\r\n                if ( missiles[i].direction == 4) { nx--; }\r\n\r\n                missiles[i].x = nx;\r\n                missiles[i].y = ny;\r\n                \r\n                if (nx == 0 || ny == 0 || nx >= MAP_SIZE || ny >= MAP_SIZE) {\r\n                    missiles[i].live = false;\r\n                    break;\r\n                }                \r\n\r\n                 for( uint j=0; j < ships.length; j++) {\r\n                    if (ships[j].live) {\r\n                        uint xw = absDiff( nx, ships[j].x);\r\n                        uint yw = absDiff( ny, ships[j].y);\r\n                        if ( xw < SHIP_WIDTH && yw < SHIP_WIDTH) {\r\n                            // HIT\r\n                            missiles[i].live = false;\r\n                            \r\n                            piyo_balance[ships[j].owner]--;\r\n                            piyo_balance[missiles[i].owner]++;\r\n                            \r\n                            emit Sagitarius_hit(missiles[i].owner,ships[j].owner);\r\n\r\n                            if( piyo_balance[ships[j].owner] == 0 ) {\r\n                                ships[j].live = false;\r\n                                emit Sagitarius_end(ships[j].owner);\r\n                            }\r\n                            break;\r\n                        }\r\n                    }\r\n                }               \r\n\r\n            }\r\n        }\r\n    }\r\n\r\n    function getRandomPosision(uint _seed) private view returns (uint,uint) {\r\n        \r\n        uint x = uint(keccak256(abi.encodePacked(block.timestamp,msg.sender,_seed))) % MAP_SIZE;\r\n        _seed++;\r\n        uint y = uint(keccak256(abi.encodePacked(block.timestamp,msg.sender,_seed))) % MAP_SIZE;\r\n\r\n        return (x,y);\r\n    }\r\n\r\n    function isExist(uint _x,  uint _y) private view returns (bool) {\r\n        bool ret = false;\r\n        for( uint i=0; i < ships.length; i++) {\r\n            if (ships[i].live) {\r\n                uint xw = absDiff( _x, ships[i].x);\r\n                uint yw = absDiff( _y, ships[i].y);\r\n                if ( xw < SHIP_WIDTH*2 && yw < SHIP_WIDTH+2) {\r\n                    ret = true;\r\n                }\r\n            }\r\n        }\r\n        return ret;\r\n    }\r\n\r\n    function absDiff(uint a, uint b) private pure returns (uint ) {\r\n        uint ret;\r\n        if (a > b) { ret = a-b ;}\r\n        if (b > a) { ret = b-a ;}\r\n        return ret;\r\n    }\r\n}",
  "sourcePath": "/home/ubuntu/gamecenter/contracts/GameCenter.sol",
  "compiler": {
    "name": "solc",
    "version": "0.8.1+commit.df193b15.Emscripten.clang"
  },
  "schemaVersion": "3.4.1",
  "updatedAt": "2021-07-07T02:14:17.362Z",
  "networkType": "ethereum",
  "devdoc": {
    "kind": "dev",
    "methods": {},
    "version": 1
  },
  "userdoc": {
    "kind": "user",
    "methods": {},
    "version": 1
  }
}